{
  "contractName": "MedicalRecords",
  "abi": [
    {
      "inputs": [],
      "stateMutability": "nonpayable",
      "type": "constructor"
    },
    {
      "anonymous": false,
      "inputs": [
        {
          "indexed": true,
          "internalType": "address",
          "name": "doctor",
          "type": "address"
        }
      ],
      "name": "DoctorAuthorized",
      "type": "event"
    },
    {
      "anonymous": false,
      "inputs": [
        {
          "indexed": true,
          "internalType": "address",
          "name": "doctor",
          "type": "address"
        }
      ],
      "name": "DoctorRevoked",
      "type": "event"
    },
    {
      "anonymous": false,
      "inputs": [
        {
          "indexed": true,
          "internalType": "address",
          "name": "patient",
          "type": "address"
        },
        {
          "indexed": false,
          "internalType": "string",
          "name": "recordID",
          "type": "string"
        },
        {
          "indexed": true,
          "internalType": "address",
          "name": "doctor",
          "type": "address"
        }
      ],
      "name": "RecordAdded",
      "type": "event"
    },
    {
      "inputs": [
        {
          "internalType": "address",
          "name": "doctorAddress",
          "type": "address"
        }
      ],
      "name": "authorizeDoctor",
      "outputs": [],
      "stateMutability": "nonpayable",
      "type": "function"
    },
    {
      "inputs": [
        {
          "internalType": "address",
          "name": "doctorAddress",
          "type": "address"
        }
      ],
      "name": "revokeDoctor",
      "outputs": [],
      "stateMutability": "nonpayable",
      "type": "function"
    },
    {
      "inputs": [
        {
          "internalType": "address",
          "name": "patientAddress",
          "type": "address"
        },
        {
          "internalType": "string",
          "name": "recordID",
          "type": "string"
        },
        {
          "internalType": "string",
          "name": "recordType",
          "type": "string"
        },
        {
          "internalType": "string",
          "name": "sha256Hash",
          "type": "string"
        },
        {
          "internalType": "string",
          "name": "cid",
          "type": "string"
        }
      ],
      "name": "addMedicalRecord",
      "outputs": [],
      "stateMutability": "nonpayable",
      "type": "function"
    },
    {
      "inputs": [
        {
          "internalType": "address",
          "name": "patientAddress",
          "type": "address"
        }
      ],
      "name": "getPatientRecords",
      "outputs": [
        {
          "components": [
            {
              "internalType": "string",
              "name": "recordID",
              "type": "string"
            },
            {
              "internalType": "string",
              "name": "recordType",
              "type": "string"
            },
            {
              "internalType": "string",
              "name": "sha256Hash",
              "type": "string"
            },
            {
              "internalType": "string",
              "name": "cid",
              "type": "string"
            },
            {
              "internalType": "address",
              "name": "doctorAddress",
              "type": "address"
            },
            {
              "internalType": "uint256",
              "name": "timestamp",
              "type": "uint256"
            }
          ],
          "internalType": "struct MedicalRecords.PatientRecord[]",
          "name": "",
          "type": "tuple[]"
        }
      ],
      "stateMutability": "view",
      "type": "function",
      "constant": true
    },
    {
      "inputs": [
        {
          "internalType": "address",
          "name": "patientAddress",
          "type": "address"
        }
      ],
      "name": "getPatientRecordCount",
      "outputs": [
        {
          "internalType": "uint256",
          "name": "",
          "type": "uint256"
        }
      ],
      "stateMutability": "view",
      "type": "function",
      "constant": true
    },
    {
      "inputs": [
        {
          "internalType": "address",
          "name": "doctorAddress",
          "type": "address"
        }
      ],
      "name": "isAuthorizedDoctor",
      "outputs": [
        {
          "internalType": "bool",
          "name": "",
          "type": "bool"
        }
      ],
      "stateMutability": "view",
      "type": "function",
      "constant": true
    },
    {
      "inputs": [],
      "name": "getOwner",
      "outputs": [
        {
          "internalType": "address",
          "name": "",
          "type": "address"
        }
      ],
      "stateMutability": "view",
      "type": "function",
      "constant": true
    }
  ],
  "bytecode": "0x608060405234801561001057600080fd5b50336000806101000a81548173ffffffffffffffffffffffffffffffffffffffff021916908373ffffffffffffffffffffffffffffffffffffffff1602179055506114aa806100606000396000f3fe608060405234801561001057600080fd5b506004361061007d5760003560e01c806358c9202c1161005b57806358c9202c146100fe578063893d20e81461011a578063afbf6a7b14610138578063dcf6a382146101545761007d565b80630416af27146100825780630a9682ad1461009e57806318bd4847146100ce575b600080fd5b61009c60048036038101906100979190610d00565b610184565b005b6100b860048036038101906100b39190610d00565b6102b0565b6040516100c59190611250565b60405180910390f35b6100e860048036038101906100e39190610d00565b6103be565b6040516100f59190611171565b60405180910390f35b61011860048036038101906101139190610d00565b6107c6565b005b6101226108f1565b60405161012f9190611156565b60405180910390f35b610152600480360381019061014d9190610d29565b61091a565b005b61016e60048036038101906101699190610d00565b610b8a565b60405161017b9190611193565b60405180910390f35b60008054906101000a900473ffffffffffffffffffffffffffffffffffffffff1673ffffffffffffffffffffffffffffffffffffffff163373ffffffffffffffffffffffffffffffffffffffff1614610212576040517f08c379a0000000000000000000000000000000000000000000000000000000008152600401610209906111d0565b60405180910390fd5b6000600260008373ffffffffffffffffffffffffffffffffffffffff1673ffffffffffffffffffffffffffffffffffffffff16815260200190815260200160002060006101000a81548160ff0219169083151502179055508073ffffffffffffffffffffffffffffffffffffffff167fc7053e532de062d754b8ed96090affe0c4ba36dde0a699de7dd5185a9a9e7d0f60405160405180910390a250565b60008173ffffffffffffffffffffffffffffffffffffffff163373ffffffffffffffffffffffffffffffffffffffff1614806103355750600260003373ffffffffffffffffffffffffffffffffffffffff1673ffffffffffffffffffffffffffffffffffffffff16815260200190815260200160002060009054906101000a900460ff165b610374576040517f08c379a000000000000000000000000000000000000000000000000000000000815260040161036b90611210565b60405180910390fd5b600160008373ffffffffffffffffffffffffffffffffffffffff1673ffffffffffffffffffffffffffffffffffffffff168152602001908152602001600020805490509050919050565b60608173ffffffffffffffffffffffffffffffffffffffff163373ffffffffffffffffffffffffffffffffffffffff1614806104435750600260003373ffffffffffffffffffffffffffffffffffffffff1673ffffffffffffffffffffffffffffffffffffffff16815260200190815260200160002060009054906101000a900460ff165b610482576040517f08c379a0000000000000000000000000000000000000000000000000000000008152600401610479906111f0565b60405180910390fd5b600160008373ffffffffffffffffffffffffffffffffffffffff1673ffffffffffffffffffffffffffffffffffffffff168152602001908152602001600020805480602002602001604051908101604052809291908181526020016000905b828210156107bb57838290600052602060002090600602016040518060c0016040529081600082018054610514906113bc565b80601f0160208091040260200160405190810160405280929190818152602001828054610540906113bc565b801561058d5780601f106105625761010080835404028352916020019161058d565b820191906000526020600020905b81548152906001019060200180831161057057829003601f168201915b505050505081526020016001820180546105a6906113bc565b80601f01602080910402602001604051908101604052809291908181526020018280546105d2906113bc565b801561061f5780601f106105f45761010080835404028352916020019161061f565b820191906000526020600020905b81548152906001019060200180831161060257829003601f168201915b50505050508152602001600282018054610638906113bc565b80601f0160208091040260200160405190810160405280929190818152602001828054610664906113bc565b80156106b15780601f10610686576101008083540402835291602001916106b1565b820191906000526020600020905b81548152906001019060200180831161069457829003601f168201915b505050505081526020016003820180546106ca906113bc565b80601f01602080910402602001604051908101604052809291908181526020018280546106f6906113bc565b80156107435780601f1061071857610100808354040283529160200191610743565b820191906000526020600020905b81548152906001019060200180831161072657829003601f168201915b505050505081526020016004820160009054906101000a900473ffffffffffffffffffffffffffffffffffffffff1673ffffffffffffffffffffffffffffffffffffffff1673ffffffffffffffffffffffffffffffffffffffff168152602001600582015481525050815260200190600101906104e1565b505050509050919050565b60008054906101000a900473ffffffffffffffffffffffffffffffffffffffff1673ffffffffffffffffffffffffffffffffffffffff163373ffffffffffffffffffffffffffffffffffffffff1614610854576040517f08c379a000000000000000000000000000000000000000000000000000000000815260040161084b906111d0565b60405180910390fd5b6001600260008373ffffffffffffffffffffffffffffffffffffffff1673ffffffffffffffffffffffffffffffffffffffff16815260200190815260200160002060006101000a81548160ff0219169083151502179055508073ffffffffffffffffffffffffffffffffffffffff167ea8f5cec2bb2e273b1757cce595776dacdc60b8c5245756d69fa2bd0b2833cc60405160405180910390a250565b60008060009054906101000a900473ffffffffffffffffffffffffffffffffffffffff16905090565b600260003373ffffffffffffffffffffffffffffffffffffffff1673ffffffffffffffffffffffffffffffffffffffff16815260200190815260200160002060009054906101000a900460ff166109a6576040517f08c379a000000000000000000000000000000000000000000000000000000000815260040161099d90611230565b60405180910390fd5b60006040518060c001604052808681526020018581526020018481526020018381526020013373ffffffffffffffffffffffffffffffffffffffff168152602001428152509050600160008773ffffffffffffffffffffffffffffffffffffffff1673ffffffffffffffffffffffffffffffffffffffff1681526020019081526020016000208190806001815401808255809150506001900390600052602060002090600602016000909190919091506000820151816000019080519060200190610a72929190610be0565b506020820151816001019080519060200190610a8f929190610be0565b506040820151816002019080519060200190610aac929190610be0565b506060820151816003019080519060200190610ac9929190610be0565b5060808201518160040160006101000a81548173ffffffffffffffffffffffffffffffffffffffff021916908373ffffffffffffffffffffffffffffffffffffffff16021790555060a0820151816005015550503373ffffffffffffffffffffffffffffffffffffffff168673ffffffffffffffffffffffffffffffffffffffff167f0162e5f82d0f9f6c8f00cc90a44c2fe43acd1f1da0641215282171672daad6fa87604051610b7a91906111ae565b60405180910390a3505050505050565b6000600260008373ffffffffffffffffffffffffffffffffffffffff1673ffffffffffffffffffffffffffffffffffffffff16815260200190815260200160002060009054906101000a900460ff169050919050565b828054610bec906113bc565b90600052602060002090601f016020900481019282610c0e5760008555610c55565b82601f10610c2757805160ff1916838001178555610c55565b82800160010185558215610c55579182015b82811115610c54578251825591602001919060010190610c39565b5b509050610c629190610c66565b5090565b5b80821115610c7f576000816000905550600101610c67565b5090565b6000610c96610c918461129c565b61126b565b905082815260208101848484011115610cae57600080fd5b610cb984828561137a565b509392505050565b600081359050610cd08161145d565b92915050565b600082601f830112610ce757600080fd5b8135610cf7848260208601610c83565b91505092915050565b600060208284031215610d1257600080fd5b6000610d2084828501610cc1565b91505092915050565b600080600080600060a08688031215610d4157600080fd5b6000610d4f88828901610cc1565b955050602086013567ffffffffffffffff811115610d6c57600080fd5b610d7888828901610cd6565b945050604086013567ffffffffffffffff811115610d9557600080fd5b610da188828901610cd6565b935050606086013567ffffffffffffffff811115610dbe57600080fd5b610dca88828901610cd6565b925050608086013567ffffffffffffffff811115610de757600080fd5b610df388828901610cd6565b9150509295509295909350565b6000610e0c838361109a565b905092915050565b610e1d81611332565b82525050565b610e2c81611332565b82525050565b6000610e3d826112dc565b610e4781856112ff565b935083602082028501610e59856112cc565b8060005b85811015610e955784840389528151610e768582610e00565b9450610e81836112f2565b925060208a01995050600181019050610e5d565b50829750879550505050505092915050565b610eb081611344565b82525050565b6000610ec1826112e7565b610ecb8185611310565b9350610edb818560208601611389565b610ee48161144c565b840191505092915050565b6000610efa826112e7565b610f048185611321565b9350610f14818560208601611389565b610f1d8161144c565b840191505092915050565b6000610f35602583611321565b91507f4f6e6c7920746865206f776e65722063616e2063616c6c20746869732066756e60008301527f6374696f6e0000000000000000000000000000000000000000000000000000006020830152604082019050919050565b6000610f9b602483611321565b91507f4e6f7420617574686f72697a656420746f20766965772074686573652072656360008301527f6f726473000000000000000000000000000000000000000000000000000000006020830152604082019050919050565b6000611001602383611321565b91507f4e6f7420617574686f72697a656420746f2076696577207265636f726420636f60008301527f756e7400000000000000000000000000000000000000000000000000000000006020830152604082019050919050565b6000611067601883611321565b91507f4e6f7420616e20617574686f72697a656420646f63746f7200000000000000006000830152602082019050919050565b600060c08301600083015184820360008601526110b78282610eb6565b915050602083015184820360208601526110d18282610eb6565b915050604083015184820360408601526110eb8282610eb6565b915050606083015184820360608601526111058282610eb6565b915050608083015161111a6080860182610e14565b5060a083015161112d60a0860182611138565b508091505092915050565b61114181611370565b82525050565b61115081611370565b82525050565b600060208201905061116b6000830184610e23565b92915050565b6000602082019050818103600083015261118b8184610e32565b905092915050565b60006020820190506111a86000830184610ea7565b92915050565b600060208201905081810360008301526111c88184610eef565b905092915050565b600060208201905081810360008301526111e981610f28565b9050919050565b6000602082019050818103600083015261120981610f8e565b9050919050565b6000602082019050818103600083015261122981610ff4565b9050919050565b600060208201905081810360008301526112498161105a565b9050919050565b60006020820190506112656000830184611147565b92915050565b6000604051905081810181811067ffffffffffffffff821117156112925761129161141d565b5b8060405250919050565b600067ffffffffffffffff8211156112b7576112b661141d565b5b601f19601f8301169050602081019050919050565b6000819050602082019050919050565b600081519050919050565b600081519050919050565b6000602082019050919050565b600082825260208201905092915050565b600082825260208201905092915050565b600082825260208201905092915050565b600061133d82611350565b9050919050565b60008115159050919050565b600073ffffffffffffffffffffffffffffffffffffffff82169050919050565b6000819050919050565b82818337600083830152505050565b60005b838110156113a757808201518184015260208101905061138c565b838111156113b6576000848401525b50505050565b600060028204905060018216806113d457607f821691505b602082108114156113e8576113e76113ee565b5b50919050565b7f4e487b7100000000000000000000000000000000000000000000000000000000600052602260045260246000fd5b7f4e487b7100000000000000000000000000000000000000000000000000000000600052604160045260246000fd5b6000601f19601f8301169050919050565b61146681611332565b811461147157600080fd5b5056fea2646970667358221220d58ebb32ac40e2ec56ee3f14e09439d14bc06f7b5b574ba8069134cd3ded828a64736f6c63430008000033",
  "immutableReferences": {},
  "source": "// SPDX-License-Identifier: MIT\r\npragma solidity ^0.8.0;\r\n\r\n/**\r\n * @title MedicalRecords\r\n * @dev Stores and manages patient medical records with authorized doctor access\r\n */\r\ncontract MedicalRecords {\r\n    // Contract owner (hospital administrator)\r\n    address private owner;\r\n    \r\n    // Patient record structure\r\n    struct PatientRecord {\r\n        string recordID;          // Unique identifier for the record\r\n        string recordType;        // Type of medical record (e.g., \"Lab Result\", \"Prescription\")\r\n        string sha256Hash;        // SHA256 hash of the record content\r\n        string cid;               // Content identifier (IPFS or similar)\r\n        address doctorAddress;    // Which doctor created this record\r\n        uint256 timestamp;        // When the record was created\r\n    }\r\n    \r\n    // Links patients to their records\r\n    mapping(address => PatientRecord[]) private patientRecords;\r\n    \r\n    // Authorized doctors\r\n    mapping(address => bool) private authorizedDoctors;\r\n    \r\n    // Events\r\n    event RecordAdded(address indexed patient, string recordID, address indexed doctor);\r\n    event DoctorAuthorized(address indexed doctor);\r\n    event DoctorRevoked(address indexed doctor);\r\n    \r\n    // Constructor - sets the deployer as owner\r\n    constructor() {\r\n        owner = msg.sender;\r\n    }\r\n    \r\n    // Modifiers\r\n    modifier onlyOwner() {\r\n        require(msg.sender == owner, \"Only the owner can call this function\");\r\n        _;\r\n    }\r\n    \r\n    modifier onlyAuthorizedDoctor() {\r\n        require(authorizedDoctors[msg.sender], \"Not an authorized doctor\");\r\n        _;\r\n    }\r\n    \r\n    // Doctor authorization management\r\n    function authorizeDoctor(address doctorAddress) public onlyOwner {\r\n        authorizedDoctors[doctorAddress] = true;\r\n        emit DoctorAuthorized(doctorAddress);\r\n    }\r\n    \r\n    function revokeDoctor(address doctorAddress) public onlyOwner {\r\n        authorizedDoctors[doctorAddress] = false;\r\n        emit DoctorRevoked(doctorAddress);\r\n    }\r\n    \r\n    /**\r\n     * @dev Add a medical record for a patient\r\n     * @param patientAddress The wallet address of the patient\r\n     * @param recordID Unique identifier for this record\r\n     * @param recordType Type of medical record\r\n     * @param sha256Hash SHA256 hash of the record content\r\n     * @param cid Content identifier pointing to where the actual data is stored\r\n     */\r\n    function addMedicalRecord(\r\n        address patientAddress,\r\n        string memory recordID,\r\n        string memory recordType,\r\n        string memory sha256Hash,\r\n        string memory cid\r\n    ) public onlyAuthorizedDoctor {\r\n        \r\n        // Create the new record\r\n        PatientRecord memory newRecord = PatientRecord({\r\n            recordID: recordID,\r\n            recordType: recordType,\r\n            sha256Hash: sha256Hash,\r\n            cid: cid,\r\n            doctorAddress: msg.sender,\r\n            timestamp: block.timestamp\r\n        });\r\n        \r\n        // Add the record to the patient's records array\r\n        patientRecords[patientAddress].push(newRecord);\r\n        \r\n        // Emit event for tracking\r\n        emit RecordAdded(patientAddress, recordID, msg.sender);\r\n    }\r\n    \r\n    /**\r\n     * @dev Get all records for a patient\r\n     * @param patientAddress The wallet address of the patient\r\n     */\r\n    function getPatientRecords(address patientAddress) \r\n        public view \r\n        returns (PatientRecord[] memory) {\r\n        \r\n        // Allow access only if sender is the patient or an authorized doctor\r\n        require(\r\n            msg.sender == patientAddress || \r\n            authorizedDoctors[msg.sender], \r\n            \"Not authorized to view these records\"\r\n        );\r\n        \r\n        return patientRecords[patientAddress];\r\n    }\r\n    \r\n    /**\r\n     * @dev Get the number of records for a patient\r\n     * @param patientAddress The wallet address of the patient\r\n     */\r\n    function getPatientRecordCount(address patientAddress) \r\n        public view \r\n        returns (uint256) {\r\n        \r\n        // Allow access only if sender is the patient or an authorized doctor\r\n        require(\r\n            msg.sender == patientAddress || \r\n            authorizedDoctors[msg.sender], \r\n            \"Not authorized to view record count\"\r\n        );\r\n        \r\n        return patientRecords[patientAddress].length;\r\n    }\r\n    \r\n    /**\r\n     * @dev Check if an address is an authorized doctor\r\n     * @param doctorAddress The address to check\r\n     */\r\n    function isAuthorizedDoctor(address doctorAddress) public view returns (bool) {\r\n        return authorizedDoctors[doctorAddress];\r\n    }\r\n    \r\n    /**\r\n     * @dev Get contract owner address\r\n     */\r\n    function getOwner() public view returns (address) {\r\n        return owner;\r\n    }\r\n} ",
  "sourcePath": "C:\\Users\\MSI-1\\Desktop\\hackachino\\web\\web\\contracts\\MedicalRecords.sol",
  "compiler": {
    "name": "solc",
    "version": "0.8.0+commit.c7dfd78e.Emscripten.clang"
  },
  "schemaVersion": "3.4.16",
  "updatedAt": "2025-04-05T13:12:31.455Z",
  "networkType": "ethereum",
  "devdoc": {
    "details": "Stores and manages patient medical records with authorized doctor access",
    "kind": "dev",
    "methods": {
      "addMedicalRecord(address,string,string,string,string)": {
        "details": "Add a medical record for a patient",
        "params": {
          "cid": "Content identifier pointing to where the actual data is stored",
          "patientAddress": "The wallet address of the patient",
          "recordID": "Unique identifier for this record",
          "recordType": "Type of medical record",
          "sha256Hash": "SHA256 hash of the record content"
        }
      },
      "getOwner()": {
        "details": "Get contract owner address"
      },
      "getPatientRecordCount(address)": {
        "details": "Get the number of records for a patient",
        "params": {
          "patientAddress": "The wallet address of the patient"
        }
      },
      "getPatientRecords(address)": {
        "details": "Get all records for a patient",
        "params": {
          "patientAddress": "The wallet address of the patient"
        }
      },
      "isAuthorizedDoctor(address)": {
        "details": "Check if an address is an authorized doctor",
        "params": {
          "doctorAddress": "The address to check"
        }
      }
    },
    "title": "MedicalRecords",
    "version": 1
  },
  "userdoc": {
    "kind": "user",
    "methods": {},
    "version": 1
  }
}