{
  "contractName": "PatientData",
  "abi": [
    {
      "anonymous": false,
      "inputs": [
        {
          "indexed": false,
          "internalType": "string",
          "name": "patientID",
          "type": "string"
        },
        {
          "indexed": false,
          "internalType": "string",
          "name": "hashID",
          "type": "string"
        },
        {
          "indexed": false,
          "internalType": "string",
          "name": "cid",
          "type": "string"
        },
        {
          "indexed": true,
          "internalType": "address",
          "name": "updater",
          "type": "address"
        }
      ],
      "name": "DataStored",
      "type": "event"
    },
    {
      "inputs": [],
      "name": "cid",
      "outputs": [
        {
          "internalType": "string",
          "name": "",
          "type": "string"
        }
      ],
      "stateMutability": "view",
      "type": "function",
      "constant": true
    },
    {
      "inputs": [],
      "name": "hashID",
      "outputs": [
        {
          "internalType": "string",
          "name": "",
          "type": "string"
        }
      ],
      "stateMutability": "view",
      "type": "function",
      "constant": true
    },
    {
      "inputs": [],
      "name": "patientID",
      "outputs": [
        {
          "internalType": "string",
          "name": "",
          "type": "string"
        }
      ],
      "stateMutability": "view",
      "type": "function",
      "constant": true
    },
    {
      "inputs": [
        {
          "internalType": "string",
          "name": "_patientID",
          "type": "string"
        },
        {
          "internalType": "string",
          "name": "_hashID",
          "type": "string"
        },
        {
          "internalType": "string",
          "name": "_cid",
          "type": "string"
        }
      ],
      "name": "storeData",
      "outputs": [],
      "stateMutability": "nonpayable",
      "type": "function"
    }
  ],
  "bytecode": "0x608060405234801561001057600080fd5b506106ec806100206000396000f3fe608060405234801561001057600080fd5b506004361061004c5760003560e01c80638d1d17cd14610051578063aa3ec0a91461006f578063d4001ef21461008d578063f680a7bd146100a9575b600080fd5b6100596100c7565b60405161006691906104e8565b60405180910390f35b610077610155565b60405161008491906104e8565b60405180910390f35b6100a760048036038101906100a29190610418565b6101e3565b005b6100b161027f565b6040516100be91906104e8565b60405180910390f35b600180546100d490610615565b80601f016020809104026020016040519081016040528092919081815260200182805461010090610615565b801561014d5780601f106101225761010080835404028352916020019161014d565b820191906000526020600020905b81548152906001019060200180831161013057829003601f168201915b505050505081565b6002805461016290610615565b80601f016020809104026020016040519081016040528092919081815260200182805461018e90610615565b80156101db5780601f106101b0576101008083540402835291602001916101db565b820191906000526020600020905b8154815290600101906020018083116101be57829003601f168201915b505050505081565b82600090805190602001906101f992919061030d565b50816001908051906020019061021092919061030d565b50806002908051906020019061022792919061030d565b503373ffffffffffffffffffffffffffffffffffffffff167fe22bef56ec87ef569ff3f90a182ffc7429e3251c81a96b4655d0fd50475cc7718484846040516102729392919061050a565b60405180910390a2505050565b6000805461028c90610615565b80601f01602080910402602001604051908101604052809291908181526020018280546102b890610615565b80156103055780601f106102da57610100808354040283529160200191610305565b820191906000526020600020905b8154815290600101906020018083116102e857829003601f168201915b505050505081565b82805461031990610615565b90600052602060002090601f01602090048101928261033b5760008555610382565b82601f1061035457805160ff1916838001178555610382565b82800160010185558215610382579182015b82811115610381578251825591602001919060010190610366565b5b50905061038f9190610393565b5090565b5b808211156103ac576000816000905550600101610394565b5090565b60006103c36103be84610587565b610556565b9050828152602081018484840111156103db57600080fd5b6103e68482856105d3565b509392505050565b600082601f8301126103ff57600080fd5b813561040f8482602086016103b0565b91505092915050565b60008060006060848603121561042d57600080fd5b600084013567ffffffffffffffff81111561044757600080fd5b610453868287016103ee565b935050602084013567ffffffffffffffff81111561047057600080fd5b61047c868287016103ee565b925050604084013567ffffffffffffffff81111561049957600080fd5b6104a5868287016103ee565b9150509250925092565b60006104ba826105b7565b6104c481856105c2565b93506104d48185602086016105e2565b6104dd816106a5565b840191505092915050565b6000602082019050818103600083015261050281846104af565b905092915050565b6000606082019050818103600083015261052481866104af565b9050818103602083015261053881856104af565b9050818103604083015261054c81846104af565b9050949350505050565b6000604051905081810181811067ffffffffffffffff8211171561057d5761057c610676565b5b8060405250919050565b600067ffffffffffffffff8211156105a2576105a1610676565b5b601f19601f8301169050602081019050919050565b600081519050919050565b600082825260208201905092915050565b82818337600083830152505050565b60005b838110156106005780820151818401526020810190506105e5565b8381111561060f576000848401525b50505050565b6000600282049050600182168061062d57607f821691505b6020821081141561064157610640610647565b5b50919050565b7f4e487b7100000000000000000000000000000000000000000000000000000000600052602260045260246000fd5b7f4e487b7100000000000000000000000000000000000000000000000000000000600052604160045260246000fd5b6000601f19601f830116905091905056fea26469706673582212205e212d30987eb87f6ed69517525ab03c93c96b12f7b4771435a89725bed0b75164736f6c63430008000033",
  "immutableReferences": {},
  "source": "// SPDX-License-Identifier: MIT\r\npragma solidity ^0.8.0; // Use a recent stable version\r\n\r\n/**\r\n * @title PatientData\r\n * @dev Stores patient-related identifiers publicly.\r\n */\r\ncontract PatientData {\r\n\r\n    // --- State Variables ---\r\n\r\n    // Public visibility automatically creates getter functions (patientID(), hashID(), cid())\r\n    string public patientID;\r\n    string public hashID;\r\n    string public cid; // Content Identifier (e.g., for IPFS)\r\n\r\n    // --- Events ---\r\n\r\n    // Event emitted when data is updated\r\n    event DataStored(\r\n        string patientID,\r\n        string hashID,\r\n        string cid,\r\n        address indexed updater // Address that called the function\r\n    );\r\n\r\n    // --- Functions ---\r\n\r\n    /**\r\n     * @dev Stores or updates the patient data.\r\n     * @param _patientID The ID of the patient.\r\n     * @param _hashID The hash associated with the patient's data.\r\n     * @param _cid The Content Identifier (e.g., IPFS CID) for related files.\r\n     */\r\n    function storeData(string memory _patientID, string memory _hashID, string memory _cid) public {\r\n        patientID = _patientID;\r\n        hashID = _hashID;\r\n        cid = _cid;\r\n\r\n        // Emit an event to log the change off-chain\r\n        emit DataStored(_patientID, _hashID, _cid, msg.sender);\r\n    }\r\n\r\n    // --- Getter Functions (Optional - Already created by 'public') ---\r\n    // Solidity automatically creates these because the variables are public:\r\n    // function getPatientID() public view returns (string memory) { return patientID; }\r\n    // function getHashID() public view returns (string memory) { return hashID; }\r\n    // function getCID() public view returns (string memory) { return cid; }\r\n}",
  "sourcePath": "C:\\Users\\anubh\\Desktop\\potbelly\\web\\contracts\\PatientData.sol",
  "compiler": {
    "name": "solc",
    "version": "0.8.0+commit.c7dfd78e.Emscripten.clang"
  },
  "schemaVersion": "3.4.16",
  "updatedAt": "2025-04-05T06:13:47.789Z",
  "networkType": "ethereum",
  "devdoc": {
    "details": "Stores patient-related identifiers publicly.",
    "kind": "dev",
    "methods": {
      "storeData(string,string,string)": {
        "details": "Stores or updates the patient data.",
        "params": {
          "_cid": "The Content Identifier (e.g., IPFS CID) for related files.",
          "_hashID": "The hash associated with the patient's data.",
          "_patientID": "The ID of the patient."
        }
      }
    },
    "title": "PatientData",
    "version": 1
  },
  "userdoc": {
    "kind": "user",
    "methods": {},
    "version": 1
  }
}